{
  "contractName": "SystemVote",
  "abi": [
    {
      "anonymous": false,
      "inputs": [
        {
          "indexed": true,
          "internalType": "address",
          "name": "previousOwner",
          "type": "address"
        },
        {
          "indexed": true,
          "internalType": "address",
          "name": "newOwner",
          "type": "address"
        }
      ],
      "name": "OwnershipTransferred",
      "type": "event"
    },
    {
      "anonymous": false,
      "inputs": [
        {
          "indexed": false,
          "internalType": "uint256",
          "name": "proposalId",
          "type": "uint256"
        }
      ],
      "name": "ProposalRegistered",
      "type": "event"
    },
    {
      "anonymous": false,
      "inputs": [],
      "name": "ProposalsRegistrationEnded",
      "type": "event"
    },
    {
      "anonymous": false,
      "inputs": [],
      "name": "ProposalsRegistrationStarted",
      "type": "event"
    },
    {
      "anonymous": false,
      "inputs": [
        {
          "indexed": false,
          "internalType": "address",
          "name": "voter",
          "type": "address"
        },
        {
          "indexed": false,
          "internalType": "uint256",
          "name": "proposalId",
          "type": "uint256"
        }
      ],
      "name": "Voted",
      "type": "event"
    },
    {
      "anonymous": false,
      "inputs": [
        {
          "indexed": false,
          "internalType": "address",
          "name": "voterAddress",
          "type": "address"
        }
      ],
      "name": "VoterRegistered",
      "type": "event"
    },
    {
      "anonymous": false,
      "inputs": [],
      "name": "VotesTallied",
      "type": "event"
    },
    {
      "anonymous": false,
      "inputs": [],
      "name": "VotingSessionEnded",
      "type": "event"
    },
    {
      "anonymous": false,
      "inputs": [],
      "name": "VotingSessionStarted",
      "type": "event"
    },
    {
      "anonymous": false,
      "inputs": [
        {
          "indexed": false,
          "internalType": "enum SystemVote.WorkflowStatus",
          "name": "previousStatus",
          "type": "uint8"
        },
        {
          "indexed": false,
          "internalType": "enum SystemVote.WorkflowStatus",
          "name": "newStatus",
          "type": "uint8"
        }
      ],
      "name": "WorkflowStatusChange",
      "type": "event"
    },
    {
      "stateMutability": "nonpayable",
      "type": "fallback"
    },
    {
      "inputs": [],
      "name": "owner",
      "outputs": [
        {
          "internalType": "address",
          "name": "",
          "type": "address"
        }
      ],
      "stateMutability": "view",
      "type": "function"
    },
    {
      "inputs": [],
      "name": "renounceOwnership",
      "outputs": [],
      "stateMutability": "nonpayable",
      "type": "function"
    },
    {
      "inputs": [
        {
          "internalType": "address",
          "name": "newOwner",
          "type": "address"
        }
      ],
      "name": "transferOwnership",
      "outputs": [],
      "stateMutability": "nonpayable",
      "type": "function"
    },
    {
      "inputs": [],
      "name": "winningProposalId",
      "outputs": [
        {
          "internalType": "uint256",
          "name": "",
          "type": "uint256"
        }
      ],
      "stateMutability": "view",
      "type": "function"
    },
    {
      "inputs": [
        {
          "internalType": "address",
          "name": "_address",
          "type": "address"
        }
      ],
      "name": "RegisterVoter",
      "outputs": [],
      "stateMutability": "nonpayable",
      "type": "function"
    },
    {
      "inputs": [],
      "name": "BeginProposalStep",
      "outputs": [],
      "stateMutability": "nonpayable",
      "type": "function"
    },
    {
      "inputs": [
        {
          "internalType": "string",
          "name": "_proposalDescription",
          "type": "string"
        }
      ],
      "name": "RegisterProposal",
      "outputs": [],
      "stateMutability": "nonpayable",
      "type": "function"
    },
    {
      "inputs": [],
      "name": "EndProposalStep",
      "outputs": [],
      "stateMutability": "nonpayable",
      "type": "function"
    },
    {
      "inputs": [],
      "name": "StartVoting",
      "outputs": [],
      "stateMutability": "nonpayable",
      "type": "function"
    },
    {
      "inputs": [
        {
          "internalType": "uint256",
          "name": "proposalId",
          "type": "uint256"
        }
      ],
      "name": "Vote",
      "outputs": [],
      "stateMutability": "nonpayable",
      "type": "function"
    },
    {
      "inputs": [],
      "name": "EndVoting",
      "outputs": [],
      "stateMutability": "nonpayable",
      "type": "function"
    },
    {
      "inputs": [],
      "name": "TaillingVotes",
      "outputs": [],
      "stateMutability": "nonpayable",
      "type": "function"
    },
    {
      "inputs": [],
      "name": "DestructContract",
      "outputs": [],
      "stateMutability": "nonpayable",
      "type": "function"
    },
    {
      "inputs": [],
      "name": "WinningProposalDescription",
      "outputs": [
        {
          "internalType": "string",
          "name": "",
          "type": "string"
        }
      ],
      "stateMutability": "view",
      "type": "function"
    },
    {
      "inputs": [],
      "name": "WinningProposalScore",
      "outputs": [
        {
          "internalType": "uint256",
          "name": "",
          "type": "uint256"
        }
      ],
      "stateMutability": "view",
      "type": "function"
    },
    {
      "inputs": [],
      "name": "ProposalNumber",
      "outputs": [
        {
          "internalType": "uint256",
          "name": "",
          "type": "uint256"
        }
      ],
      "stateMutability": "view",
      "type": "function"
    },
    {
      "inputs": [
        {
          "internalType": "uint256",
          "name": "Id",
          "type": "uint256"
        }
      ],
      "name": "ProposalDescriptionById",
      "outputs": [
        {
          "internalType": "string",
          "name": "",
          "type": "string"
        }
      ],
      "stateMutability": "view",
      "type": "function"
    },
    {
      "inputs": [
        {
          "internalType": "uint256",
          "name": "Id",
          "type": "uint256"
        }
      ],
      "name": "ProposalSocreById",
      "outputs": [
        {
          "internalType": "uint256",
          "name": "",
          "type": "uint256"
        }
      ],
      "stateMutability": "view",
      "type": "function"
    }
  ],
  "bytecode": "0x60806040526000600460006101000a81548160ff0219169083600581111561002357fe5b021790555034801561003457600080fd5b5060006100456100e860201b60201c565b9050806000806101000a81548173ffffffffffffffffffffffffffffffffffffffff021916908373ffffffffffffffffffffffffffffffffffffffff1602179055508073ffffffffffffffffffffffffffffffffffffffff16600073ffffffffffffffffffffffffffffffffffffffff167f8be0079c531659141344cd1fd0a4f28419497f9722a3daafe3b4186f6b6457e060405160405180910390a3506100f0565b600033905090565b6126b980620001006000396000f3fe608060405234801561001057600080fd5b506004361061011a5760003560e01c80639c493883116100a2578063cc4d2ffc11610071578063cc4d2ffc1461041c578063d094c1f01461049f578063dcd6a5cd146104a9578063f2fde38b146104d7578063f3fe19761461051b5761011b565b80639c49388314610307578063b1a9d2f814610325578063c64963c5146103e0578063c8ff7502146103fe5761011b565b80636bcf501b116100e95780636bcf501b146101f8578063715018a6146102025780637a99c0a61461020c5780637d037c6a146102165780638da5cb5b146102bd5761011b565b806315fe6f1b14610196578063289f9019146101da57806330805551146101e45780634b5209fd146101ee5761011b565b5b60008036905014610194576040517f08c379a000000000000000000000000000000000000000000000000000000000815260040180806020018281038252600f8152602001807f46616c6c4261636b2063616c6c6564000000000000000000000000000000000081525060200191505060405180910390fd5b005b6101d8600480360360208110156101ac57600080fd5b81019080803573ffffffffffffffffffffffffffffffffffffffff16906020019092919050505061055d565b005b6101e2610901565b005b6101ec6109e3565b005b6101f6610bd8565b005b610200610dce565b005b61020a61104b565b005b6102146111d3565b005b6102426004803603602081101561022c57600080fd5b81019080803590602001909291905050506113c9565b6040518080602001828103825283818151815260200191508051906020019080838360005b83811015610282578082015181840152602081019050610267565b50505050905090810190601f1680156102af5780820380516001836020036101000a031916815260200191505b509250505060405180910390f35b6102c5611509565b604051808273ffffffffffffffffffffffffffffffffffffffff1673ffffffffffffffffffffffffffffffffffffffff16815260200191505060405180910390f35b61030f611532565b6040518082815260200191505060405180910390f35b6103de6004803603602081101561033b57600080fd5b810190808035906020019064010000000081111561035857600080fd5b82018360208201111561036a57600080fd5b8035906020019184600183028401116401000000008311171561038c57600080fd5b91908080601f016020809104026020016040519081016040528093929190818152602001838380828437600081840152601f19601f8201169050808301925050505050505091929192905050506115f6565b005b6103e861182d565b6040518082815260200191505060405180910390f35b610406611833565b6040518082815260200191505060405180910390f35b610424611840565b6040518080602001828103825283818151815260200191508051906020019080838360005b83811015610464578082015181840152602081019050610449565b50505050905090810190601f1680156104915780820380516001836020036101000a031916815260200191505b509250505060405180910390f35b6104a761199c565b005b6104d5600480360360208110156104bf57600080fd5b8101908080359060200190929190505050611b92565b005b610519600480360360208110156104ed57600080fd5b81019080803573ffffffffffffffffffffffffffffffffffffffff169060200190929190505050611f85565b005b6105476004803603602081101561053157600080fd5b8101908080359060200190929190505050612192565b6040518082815260200191505060405180910390f35b61056561223a565b73ffffffffffffffffffffffffffffffffffffffff166000809054906101000a900473ffffffffffffffffffffffffffffffffffffffff1673ffffffffffffffffffffffffffffffffffffffff1614610626576040517f08c379a00000000000000000000000000000000000000000000000000000000081526004018080602001828103825260208152602001807f4f776e61626c653a2063616c6c6572206973206e6f7420746865206f776e657281525060200191505060405180910390fd5b600073ffffffffffffffffffffffffffffffffffffffff168173ffffffffffffffffffffffffffffffffffffffff1614156106c9576040517f08c379a000000000000000000000000000000000000000000000000000000000815260040180806020018281038252600a8152602001807f416464726573736520300000000000000000000000000000000000000000000081525060200191505060405180910390fd5b600060058111156106d657fe5b600460009054906101000a900460ff1660058111156106f157fe5b14610747576040517f08c379a00000000000000000000000000000000000000000000000000000000081526004018080602001828103825260298152602001806125846029913960400191505060405180910390fd5b600260008273ffffffffffffffffffffffffffffffffffffffff1673ffffffffffffffffffffffffffffffffffffffff16815260200190815260200160002060000160009054906101000a900460ff16156107ed576040517f08c379a00000000000000000000000000000000000000000000000000000000081526004018080602001828103825260238152602001806126616023913960400191505060405180910390fd5b60405180606001604052806001151581526020016000151581526020016000815250600260008373ffffffffffffffffffffffffffffffffffffffff1673ffffffffffffffffffffffffffffffffffffffff16815260200190815260200160002060008201518160000160006101000a81548160ff02191690831515021790555060208201518160000160016101000a81548160ff021916908315150217905550604082015181600101559050507fb6be2187d059cc2a55fe29e0e503b566e1e0f8c8780096e185429350acffd3dd81604051808273ffffffffffffffffffffffffffffffffffffffff1673ffffffffffffffffffffffffffffffffffffffff16815260200191505060405180910390a150565b61090961223a565b73ffffffffffffffffffffffffffffffffffffffff166000809054906101000a900473ffffffffffffffffffffffffffffffffffffffff1673ffffffffffffffffffffffffffffffffffffffff16146109ca576040517f08c379a00000000000000000000000000000000000000000000000000000000081526004018080602001828103825260208152602001807f4f776e61626c653a2063616c6c6572206973206e6f7420746865206f776e657281525060200191505060405180910390fd5b3373ffffffffffffffffffffffffffffffffffffffff16ff5b6109eb61223a565b73ffffffffffffffffffffffffffffffffffffffff166000809054906101000a900473ffffffffffffffffffffffffffffffffffffffff1673ffffffffffffffffffffffffffffffffffffffff1614610aac576040517f08c379a00000000000000000000000000000000000000000000000000000000081526004018080602001828103825260208152602001807f4f776e61626c653a2063616c6c6572206973206e6f7420746865206f776e657281525060200191505060405180910390fd5b60036005811115610ab957fe5b600460009054906101000a900460ff166005811115610ad457fe5b14610b2a576040517f08c379a00000000000000000000000000000000000000000000000000000000081526004018080602001828103825260318152602001806125536031913960400191505060405180910390fd5b60048060006101000a81548160ff02191690836005811115610b4857fe5b02179055507fc379d349a6301baf50fb2f98d829f4ae10b1cdb7c66f4e4d8117302df7b8cd4c60405160405180910390a17f0a97a4ee45751e2abf3e4fc8946939630b11b371ea8ae39ccdc3056e98f5cc3f6003600460405180836005811115610bae57fe5b60ff168152602001826005811115610bc257fe5b60ff1681526020019250505060405180910390a1565b610be061223a565b73ffffffffffffffffffffffffffffffffffffffff166000809054906101000a900473ffffffffffffffffffffffffffffffffffffffff1673ffffffffffffffffffffffffffffffffffffffff1614610ca1576040517f08c379a00000000000000000000000000000000000000000000000000000000081526004018080602001828103825260208152602001807f4f776e61626c653a2063616c6c6572206973206e6f7420746865206f776e657281525060200191505060405180910390fd5b60006005811115610cae57fe5b600460009054906101000a900460ff166005811115610cc957fe5b14610d1f576040517f08c379a000000000000000000000000000000000000000000000000000000000815260040180806020018281038252603d8152602001806125ad603d913960400191505060405180910390fd5b6001600460006101000a81548160ff02191690836005811115610d3e57fe5b02179055507f344c25562921d075a298d34b6dd1fd00d36ff293974539dfd4a8c625d9f0064c60405160405180910390a17f0a97a4ee45751e2abf3e4fc8946939630b11b371ea8ae39ccdc3056e98f5cc3f6000600160405180836005811115610da457fe5b60ff168152602001826005811115610db857fe5b60ff1681526020019250505060405180910390a1565b610dd661223a565b73ffffffffffffffffffffffffffffffffffffffff166000809054906101000a900473ffffffffffffffffffffffffffffffffffffffff1673ffffffffffffffffffffffffffffffffffffffff1614610e97576040517f08c379a00000000000000000000000000000000000000000000000000000000081526004018080602001828103825260208152602001807f4f776e61626c653a2063616c6c6572206973206e6f7420746865206f776e657281525060200191505060405180910390fd5b60046005811115610ea457fe5b600460009054906101000a900460ff166005811115610ebf57fe5b14610f15576040517f08c379a000000000000000000000000000000000000000000000000000000000815260040180806020018281038252604581526020018061250e6045913960600191505060405180910390fd5b600080600090506000806003805490509050600191505b808211610f91578260036001840381548110610f4457fe5b9060005260206000209060020201600101541115610f845760036001830381548110610f6c57fe5b90600052602060002090600202016001015492508193505b8180600101925050610f2c565b836001819055506005600460006101000a81548160ff02191690836005811115610fb757fe5b02179055507f0e5e95ff8725ab3e7a4b6b59998a4c344c2aa8d1485f5e60cb7f337768e6134760405160405180910390a17f0a97a4ee45751e2abf3e4fc8946939630b11b371ea8ae39ccdc3056e98f5cc3f600460056040518083600581111561101d57fe5b60ff16815260200182600581111561103157fe5b60ff1681526020019250505060405180910390a150505050565b61105361223a565b73ffffffffffffffffffffffffffffffffffffffff166000809054906101000a900473ffffffffffffffffffffffffffffffffffffffff1673ffffffffffffffffffffffffffffffffffffffff1614611114576040517f08c379a00000000000000000000000000000000000000000000000000000000081526004018080602001828103825260208152602001807f4f776e61626c653a2063616c6c6572206973206e6f7420746865206f776e657281525060200191505060405180910390fd5b600073ffffffffffffffffffffffffffffffffffffffff166000809054906101000a900473ffffffffffffffffffffffffffffffffffffffff1673ffffffffffffffffffffffffffffffffffffffff167f8be0079c531659141344cd1fd0a4f28419497f9722a3daafe3b4186f6b6457e060405160405180910390a360008060006101000a81548173ffffffffffffffffffffffffffffffffffffffff021916908373ffffffffffffffffffffffffffffffffffffffff160217905550565b6111db61223a565b73ffffffffffffffffffffffffffffffffffffffff166000809054906101000a900473ffffffffffffffffffffffffffffffffffffffff1673ffffffffffffffffffffffffffffffffffffffff161461129c576040517f08c379a00000000000000000000000000000000000000000000000000000000081526004018080602001828103825260208152602001807f4f776e61626c653a2063616c6c6572206973206e6f7420746865206f776e657281525060200191505060405180910390fd5b600260058111156112a957fe5b600460009054906101000a900460ff1660058111156112c457fe5b1461131a576040517f08c379a000000000000000000000000000000000000000000000000000000000815260040180806020018281038252604d815260200180612614604d913960600191505060405180910390fd5b6003600460006101000a81548160ff0219169083600581111561133957fe5b02179055507f1b8e19a458c1bcd88553332c518cc5c4e2d5793e712ee766d4f1c14f672ef1f560405160405180910390a17f0a97a4ee45751e2abf3e4fc8946939630b11b371ea8ae39ccdc3056e98f5cc3f600260036040518083600581111561139f57fe5b60ff1681526020018260058111156113b357fe5b60ff1681526020019250505060405180910390a1565b60606003805490506001830310611448576040517f08c379a000000000000000000000000000000000000000000000000000000000815260040180806020018281038252601b8152602001807f546869732070726f706f73616c20646f65736e2774206578697374000000000081525060200191505060405180910390fd5b6003600183038154811061145857fe5b90600052602060002090600202016000018054600181600116156101000203166002900480601f0160208091040260200160405190810160405280929190818152602001828054600181600116156101000203166002900480156114fd5780601f106114d2576101008083540402835291602001916114fd565b820191906000526020600020905b8154815290600101906020018083116114e057829003601f168201915b50505050509050919050565b60008060009054906101000a900473ffffffffffffffffffffffffffffffffffffffff16905090565b600060058081111561154057fe5b600460009054906101000a900460ff16600581111561155b57fe5b146115ce576040517f08c379a00000000000000000000000000000000000000000000000000000000081526004018080602001828103825260188152602001807f566f746520636f756e74696e672069736e277420646f6e65000000000000000081525060200191505060405180910390fd5b60036001805403815481106115df57fe5b906000526020600020906002020160010154905090565b6001600581111561160357fe5b600460009054906101000a900460ff16600581111561161e57fe5b14611674576040517f08c379a000000000000000000000000000000000000000000000000000000000815260040180806020018281038252602e815260200180612493602e913960400191505060405180910390fd5b600260003373ffffffffffffffffffffffffffffffffffffffff1673ffffffffffffffffffffffffffffffffffffffff16815260200190815260200160002060000160009054906101000a900460ff16611719576040517f08c379a000000000000000000000000000000000000000000000000000000000815260040180806020018281038252602a8152602001806125ea602a913960400191505060405180910390fd5b61172281612242565b15611778576040517f08c379a00000000000000000000000000000000000000000000000000000000081526004018080602001828103825260278152602001806124e76027913960400191505060405180910390fd5b61178061239e565b604051806040016040528083815260200160008152509050600381908060018154018082558091505060019003906000526020600020906002020160009091909190915060008201518160000190805190602001906117e09291906123b8565b506020820151816001015550507f92e393e9b54e2f801d3ea4beb0c5e71a21cc34a5d34b77d0fb8a3aa1650dc18f6003805490506040518082815260200191505060405180910390a15050565b60015481565b6000600380549050905090565b606060058081111561184e57fe5b600460009054906101000a900460ff16600581111561186957fe5b146118dc576040517f08c379a00000000000000000000000000000000000000000000000000000000081526004018080602001828103825260188152602001807f566f746520636f756e74696e672069736e277420646f6e65000000000000000081525060200191505060405180910390fd5b60036001805403815481106118ed57fe5b90600052602060002090600202016000018054600181600116156101000203166002900480601f0160208091040260200160405190810160405280929190818152602001828054600181600116156101000203166002900480156119925780601f1061196757610100808354040283529160200191611992565b820191906000526020600020905b81548152906001019060200180831161197557829003601f168201915b5050505050905090565b6119a461223a565b73ffffffffffffffffffffffffffffffffffffffff166000809054906101000a900473ffffffffffffffffffffffffffffffffffffffff1673ffffffffffffffffffffffffffffffffffffffff1614611a65576040517f08c379a00000000000000000000000000000000000000000000000000000000081526004018080602001828103825260208152602001807f4f776e61626c653a2063616c6c6572206973206e6f7420746865206f776e657281525060200191505060405180910390fd5b60016005811115611a7257fe5b600460009054906101000a900460ff166005811115611a8d57fe5b14611ae3576040517f08c379a000000000000000000000000000000000000000000000000000000000815260040180806020018281038252603581526020018061245e6035913960400191505060405180910390fd5b6002600460006101000a81548160ff02191690836005811115611b0257fe5b02179055507f240cb87b2e4df4c318e72bd714d45a9cad60249e883ff56b1fffd83a4595a8fa60405160405180910390a17f0a97a4ee45751e2abf3e4fc8946939630b11b371ea8ae39ccdc3056e98f5cc3f6001600260405180836005811115611b6857fe5b60ff168152602001826005811115611b7c57fe5b60ff1681526020019250505060405180910390a1565b60036005811115611b9f57fe5b600460009054906101000a900460ff166005811115611bba57fe5b14611c2d576040517f08c379a000000000000000000000000000000000000000000000000000000000815260040180806020018281038252601e8152602001807f576520617265206e6f742061742074686520566f74696e67207374616765000081525060200191505060405180910390fd5b600260003373ffffffffffffffffffffffffffffffffffffffff1673ffffffffffffffffffffffffffffffffffffffff16815260200190815260200160002060000160009054906101000a900460ff16611cd2576040517f08c379a000000000000000000000000000000000000000000000000000000000815260040180806020018281038252602a8152602001806125ea602a913960400191505060405180910390fd5b600260003373ffffffffffffffffffffffffffffffffffffffff1673ffffffffffffffffffffffffffffffffffffffff16815260200190815260200160002060000160019054906101000a900460ff1615611d95576040517f08c379a000000000000000000000000000000000000000000000000000000000815260040180806020018281038252601e8152602001807f54686973206163636f756e742068617320616c726561647920766f746564000081525060200191505060405180910390fd5b80600380549050101580611da95750600081145b611e1b576040517f08c379a000000000000000000000000000000000000000000000000000000000815260040180806020018281038252601b8152602001807f546869732070726f706f73616c20646f65736e2774206578697374000000000081525060200191505060405180910390fd5b80600260003373ffffffffffffffffffffffffffffffffffffffff1673ffffffffffffffffffffffffffffffffffffffff168152602001908152602001600020600101819055506001600260003373ffffffffffffffffffffffffffffffffffffffff1673ffffffffffffffffffffffffffffffffffffffff16815260200190815260200160002060000160016101000a81548160ff021916908315150217905550611ef2600160036001840381548110611ed257fe5b90600052602060002090600202016001015461231690919063ffffffff16565b60036001830381548110611f0257fe5b9060005260206000209060020201600101819055507f4d99b957a2bc29a30ebd96a7be8e68fe50a3c701db28a91436490b7d53870ca43382604051808373ffffffffffffffffffffffffffffffffffffffff1673ffffffffffffffffffffffffffffffffffffffff1681526020018281526020019250505060405180910390a150565b611f8d61223a565b73ffffffffffffffffffffffffffffffffffffffff166000809054906101000a900473ffffffffffffffffffffffffffffffffffffffff1673ffffffffffffffffffffffffffffffffffffffff161461204e576040517f08c379a00000000000000000000000000000000000000000000000000000000081526004018080602001828103825260208152602001807f4f776e61626c653a2063616c6c6572206973206e6f7420746865206f776e657281525060200191505060405180910390fd5b600073ffffffffffffffffffffffffffffffffffffffff168173ffffffffffffffffffffffffffffffffffffffff1614156120d4576040517f08c379a00000000000000000000000000000000000000000000000000000000081526004018080602001828103825260268152602001806124c16026913960400191505060405180910390fd5b8073ffffffffffffffffffffffffffffffffffffffff166000809054906101000a900473ffffffffffffffffffffffffffffffffffffffff1673ffffffffffffffffffffffffffffffffffffffff167f8be0079c531659141344cd1fd0a4f28419497f9722a3daafe3b4186f6b6457e060405160405180910390a3806000806101000a81548173ffffffffffffffffffffffffffffffffffffffff021916908373ffffffffffffffffffffffffffffffffffffffff16021790555050565b60006003805490506001830310612211576040517f08c379a000000000000000000000000000000000000000000000000000000000815260040180806020018281038252601b8152602001807f546869732070726f706f73616c20646f65736e2774206578697374000000000081525060200191505060405180910390fd5b6003600183038154811061222157fe5b9060005260206000209060020201600101549050919050565b600033905090565b60008060038054905090506000600190505b81811161230a5783805190602001206003600183038154811061227357fe5b906000526020600020906002020160000160405180828054600181600116156101000203166002900480156122df5780601f106122bd5761010080835404028352918201916122df565b820191906000526020600020905b8154815290600101906020018083116122cb575b5050915050604051809103902014156122fd57600192505050612311565b8080600101915050612254565b6000925050505b919050565b600080828401905083811015612394576040517f08c379a000000000000000000000000000000000000000000000000000000000815260040180806020018281038252601b8152602001807f536166654d6174683a206164646974696f6e206f766572666c6f77000000000081525060200191505060405180910390fd5b8091505092915050565b604051806040016040528060608152602001600081525090565b828054600181600116156101000203166002900490600052602060002090601f016020900481019282601f106123f957805160ff1916838001178555612427565b82800160010185558215612427579182015b8281111561242657825182559160200191906001019061240b565b5b5090506124349190612438565b5090565b61245a91905b8082111561245657600081600090555060010161243e565b5090565b9056fe456e642050726f706f73616c20726567697374726174696f6e20737461676520627574206e6f6e6520686173207374617274656420576520617265206e6f74206174207468652050726f706f73616c7320726567697374726174696f6e2073746167654f776e61626c653a206e6577206f776e657220697320746865207a65726f2061646472657373546869732070726f706f73616c2068617320616c7265616479206265656e207375626d6974656454686520766f746520636f756e74696e672073746167652063616e20626567696e206f6e6c792061667465722074686520766f74696e67206f6e652068617320656e646564456e642074686520566f74696e672073657373696f6e20737461676520627574206e6f6e65206861732073746172746564576520617265206e6f742061742074686520566f746572205265676973746572696e6720737461676550726f706f73616c207374616765206d757374206265206c61756e636865642066726f6d20566f74657220726567697374726174696f6e207374616765546869732061636f756e742061646472657373206861736e2774206265656e207265676973746572656454686520766f74696e672073746167652063616e20626567696e206f6e6c79206166746572207468652070726f706f73616c20726567697374726174696f6e206f6e652068617320656e646564566f746572206164647265737320697320616c72656164792072656769737465726564a264697066735822122026327aeda935f190ff0782dc6bfbcd4e5fb1c37f75f296e4d7620cf551347a6b64736f6c634300060b0033",
  "immutableReferences": {},
  "source": "/*\nVoting system:\nAddress that are registered by the admin (the address who lauched the contract) are allowed to submit proposals (during the proposal session) and to vote for them (during the voting session). Proposal and voting sessions are scheduled by the admin. An address is allowed to vote for only one proposal. \n*/\n\n\npragma solidity 0.6.11;\n\nimport \"openzeppelin-solidity/contracts/access/Ownable.sol\";\n//import \"https://github.com/OpenZeppelin/openzeppelin-contracts/contracts/access/Ownable.sol\";\nimport \"openzeppelin-solidity/contracts/math/SafeMath.sol\";\n\ncontract SystemVote is Ownable{\n    using SafeMath for uint;\n    struct Voter {\n    bool isRegistered;\n    bool hasVoted;\n    uint votedProposalId;\n    }\n    \n    struct Proposal {\n    string description;\n    uint voteCount;\n    }\n    \n\n    enum WorkflowStatus {\n    RegisteringVoters,\n    ProposalsRegistrationStarted,\n    ProposalsRegistrationEnded,\n    VotingSessionStarted,\n    VotingSessionEnded,\n    VotesTallied\n    }\n    \n    uint public winningProposalId;\n    \n    event VoterRegistered(address voterAddress);\n    event ProposalsRegistrationStarted();\n    event ProposalsRegistrationEnded();\n    event ProposalRegistered(uint proposalId);\n    event VotingSessionStarted();\n    event VotingSessionEnded();\n    event Voted (address voter, uint proposalId);\n    event VotesTallied();\n    event WorkflowStatusChange(WorkflowStatus previousStatus, WorkflowStatus\n    newStatus);\n\n    mapping(address=>Voter) Whitelist; //Les lcteurs enregistrs\n    Proposal[] Propositions; //Liste des propositions; numrotes  partir de 1.\n    WorkflowStatus Etat = WorkflowStatus.RegisteringVoters; //Etats actuel du processus de vote\n\n\n    /*Enregistre les addresses des lcteurs sur la Whitelist*/\n    function RegisterVoter(address _address) public onlyOwner(){\n        require(_address != address(0), \"Addresse 0\");\n        require(Etat == WorkflowStatus.RegisteringVoters, \"We are not at the Voter Registering stage\");\n        require(!Whitelist[_address].isRegistered, \"Voter address is already registered\");\n\n        Whitelist[_address] = Voter(true, false, 0);\n        emit VoterRegistered(_address);\n    }   \n\n    /*Commence la session d'enregistrement de propositions*/\n    function BeginProposalStep() public onlyOwner(){\n        require(Etat == WorkflowStatus.RegisteringVoters, \"Proposal stage must be launched from Voter registration stage\");\n\n        Etat = WorkflowStatus.ProposalsRegistrationStarted;\n        emit ProposalsRegistrationStarted();\n        emit WorkflowStatusChange(WorkflowStatus.RegisteringVoters, WorkflowStatus.ProposalsRegistrationStarted);\n    }\n\n    /*Permet  l'utilisateur appelant de proposer une proposition*/\n    function RegisterProposal(string memory _proposalDescription) public {\n        require(Etat == WorkflowStatus.ProposalsRegistrationStarted, \"We are not at the Proposals registration stage\");\n        require(Whitelist[msg.sender].isRegistered, \"This acount address hasn't been registered\");\n        /*Vrifie que la proposition n'a pas dj t propose*/\n        require(!ContainProposal(_proposalDescription), \"This proposal has already been submited\"); \n\n        Proposal memory Prop = Proposal(_proposalDescription, 0);\n        Propositions.push(Prop);\n        emit ProposalRegistered(Propositions.length);\n    }\n\n    /*Permet de mettre fin  la session d'enregistrement de proposition*/\n    function EndProposalStep() public onlyOwner(){\n        require(Etat == WorkflowStatus.ProposalsRegistrationStarted, \"End Proposal registration stage but none has started \");\n        Etat = WorkflowStatus.ProposalsRegistrationEnded;\n        emit ProposalsRegistrationEnded();\n        emit WorkflowStatusChange(WorkflowStatus.ProposalsRegistrationStarted, WorkflowStatus.ProposalsRegistrationEnded);\n\n    }\n\n\n    /*Permet de vrifier si une proposition a dj t soumise.*/\n    function ContainProposal(string memory _proposalDescription) private view returns(bool){\n        uint len = Propositions.length;\n        uint i;\n        for(i = 1; i <= len; i++){\n            if(keccak256(bytes(Propositions[i - 1].description)) == keccak256(bytes(_proposalDescription))){\n                return true;\n            }\n        }\n        return false;\n    }\n\n    \n    function StartVoting() public onlyOwner(){\n        require(Etat == WorkflowStatus.ProposalsRegistrationEnded, \"The voting stage can begin only after the proposal registration one has ended\");\n\n        Etat = WorkflowStatus.VotingSessionStarted;\n        emit VotingSessionStarted();\n        emit WorkflowStatusChange(WorkflowStatus.ProposalsRegistrationEnded, WorkflowStatus.VotingSessionStarted);\n    }\n\n    function Vote(uint proposalId) public{\n        require(Etat == WorkflowStatus.VotingSessionStarted, \"We are not at the Voting stage\");\n        require(Whitelist[msg.sender].isRegistered, \"This acount address hasn't been registered\");\n        require(!Whitelist[msg.sender].hasVoted, \"This account has already voted\");\n        require((Propositions.length >= proposalId) || proposalId == 0 , \"This proposal doesn't exist\");\n        \n\n        Whitelist[msg.sender].votedProposalId = proposalId;\n        Whitelist[msg.sender].hasVoted = true;\n        Propositions[proposalId - 1].voteCount = Propositions[proposalId - 1].voteCount.add(1);\n        emit Voted (msg.sender,  proposalId);\n        \n    } \n\n    function EndVoting() public onlyOwner(){\n        require(Etat == WorkflowStatus.VotingSessionStarted, \"End the Voting session stage but none has started\");\n\n        Etat = WorkflowStatus.VotingSessionEnded;\n        emit VotingSessionEnded();\n        emit WorkflowStatusChange(WorkflowStatus.VotingSessionStarted, WorkflowStatus.VotingSessionEnded);\n    }\n    \n    function TaillingVotes() public onlyOwner() {\n        require(Etat == WorkflowStatus.VotingSessionEnded, \"The vote counting stage can begin only after the voting one has ended\");\n        \n        uint Win; //L'identifiant de la proposition gagnante\n        uint bestScore = 0; // Meilleur score lectoral obtenu\n        uint i;\n        uint len = Propositions.length;\n        for(i = 1; i<=len; i++){\n            if(Propositions[i - 1].voteCount > bestScore){\n                bestScore = Propositions[i - 1].voteCount;\n                Win = i;\n            }\n        }\n        \n        winningProposalId = Win;\n        \n        Etat = WorkflowStatus.VotesTallied;\n        emit VotesTallied();\n        emit WorkflowStatusChange(WorkflowStatus.VotingSessionEnded, WorkflowStatus.VotesTallied);\n    } \n\n    //L'Owner peut supprimer le contract lorsque le vote est termin \n    function DestructContract() public onlyOwner(){\n        selfdestruct(msg.sender);\n    }\n    \n    function WinningProposalDescription() public view returns(string memory){\n        require(Etat== WorkflowStatus.VotesTallied, \"Vote counting isn't done\");\n        return Propositions[winningProposalId - 1].description;\n    }\n        \n    \n    function WinningProposalScore() public view returns(uint){\n        require(Etat== WorkflowStatus.VotesTallied, \"Vote counting isn't done\");\n        return Propositions[winningProposalId - 1].voteCount;\n    }\n    \n    function ProposalNumber() public view returns(uint){\n        return Propositions.length;\n    }\n    \n    function ProposalDescriptionById(uint Id) public view returns(string memory){\n        require(Id - 1 < Propositions.length, \"This proposal doesn't exist\");\n        return Propositions[Id - 1].description;\n    }\n    \n    function ProposalSocreById(uint Id) public view returns(uint){\n         require(Id - 1 < Propositions.length, \"This proposal doesn't exist\");\n        return Propositions[Id - 1].voteCount;\n    }\n    \n    fallback() external{\n        require(msg.data.length == 0, \"FallBack called\"); //On prvient l'utilisateur qu'il appelle la fonction fallback, au cas o il a appell une fonction qui n'existe pas dans le contract\n    }\n    \n}",
  "sourcePath": "/home/andrei/Alyra/Alyra_Blockchain_depot/Dapp_Truffle/Defi2_SystemeVote_Dapp/contracts/Voting.sol",
  "compiler": {
    "name": "solc",
    "version": "0.6.11+commit.5ef660b1.Emscripten.clang"
  },
  "schemaVersion": "3.3.1",
  "updatedAt": "2020-11-12T20:51:02.640Z",
  "devdoc": {
    "kind": "dev",
    "methods": {
      "owner()": {
        "details": "Returns the address of the current owner."
      },
      "renounceOwnership()": {
        "details": "Leaves the contract without owner. It will not be possible to call `onlyOwner` functions anymore. Can only be called by the current owner. NOTE: Renouncing ownership will leave the contract without an owner, thereby removing any functionality that is only available to the owner."
      },
      "transferOwnership(address)": {
        "details": "Transfers ownership of the contract to a new account (`newOwner`). Can only be called by the current owner."
      }
    },
    "version": 1
  },
  "userdoc": {
    "kind": "user",
    "methods": {},
    "version": 1
  }
}