{
  "contractName": "Voting",
  "abi": [
    {
      "anonymous": false,
      "inputs": [
        {
          "indexed": true,
          "internalType": "address",
          "name": "previousOwner",
          "type": "address"
        },
        {
          "indexed": true,
          "internalType": "address",
          "name": "newOwner",
          "type": "address"
        }
      ],
      "name": "OwnershipTransferred",
      "type": "event"
    },
    {
      "anonymous": false,
      "inputs": [
        {
          "indexed": false,
          "internalType": "uint256",
          "name": "proposalId",
          "type": "uint256"
        }
      ],
      "name": "ProposalRegistered",
      "type": "event"
    },
    {
      "anonymous": false,
      "inputs": [],
      "name": "ProposalsRegistrationEnded",
      "type": "event"
    },
    {
      "anonymous": false,
      "inputs": [],
      "name": "ProposalsRegistrationStarted",
      "type": "event"
    },
    {
      "anonymous": false,
      "inputs": [
        {
          "indexed": false,
          "internalType": "address",
          "name": "voter",
          "type": "address"
        },
        {
          "indexed": false,
          "internalType": "uint256",
          "name": "proposalId",
          "type": "uint256"
        }
      ],
      "name": "Voted",
      "type": "event"
    },
    {
      "anonymous": false,
      "inputs": [
        {
          "indexed": false,
          "internalType": "address",
          "name": "voterAddress",
          "type": "address"
        }
      ],
      "name": "VoterRegistered",
      "type": "event"
    },
    {
      "anonymous": false,
      "inputs": [],
      "name": "VotesTallied",
      "type": "event"
    },
    {
      "anonymous": false,
      "inputs": [],
      "name": "VotingSessionEnded",
      "type": "event"
    },
    {
      "anonymous": false,
      "inputs": [],
      "name": "VotingSessionStarted",
      "type": "event"
    },
    {
      "anonymous": false,
      "inputs": [
        {
          "indexed": false,
          "internalType": "enum Voting.WorkflowStatus",
          "name": "previousStatus",
          "type": "uint8"
        },
        {
          "indexed": false,
          "internalType": "enum Voting.WorkflowStatus",
          "name": "newStatus",
          "type": "uint8"
        }
      ],
      "name": "WorkflowStatusChange",
      "type": "event"
    },
    {
      "stateMutability": "nonpayable",
      "type": "fallback"
    },
    {
      "inputs": [],
      "name": "owner",
      "outputs": [
        {
          "internalType": "address",
          "name": "",
          "type": "address"
        }
      ],
      "stateMutability": "view",
      "type": "function",
      "constant": true
    },
    {
      "inputs": [],
      "name": "renounceOwnership",
      "outputs": [],
      "stateMutability": "nonpayable",
      "type": "function"
    },
    {
      "inputs": [
        {
          "internalType": "address",
          "name": "newOwner",
          "type": "address"
        }
      ],
      "name": "transferOwnership",
      "outputs": [],
      "stateMutability": "nonpayable",
      "type": "function"
    },
    {
      "inputs": [],
      "name": "winningProposalId",
      "outputs": [
        {
          "internalType": "uint256",
          "name": "",
          "type": "uint256"
        }
      ],
      "stateMutability": "view",
      "type": "function",
      "constant": true
    },
    {
      "inputs": [
        {
          "internalType": "address",
          "name": "_address",
          "type": "address"
        }
      ],
      "name": "RegisterVoter",
      "outputs": [],
      "stateMutability": "nonpayable",
      "type": "function"
    },
    {
      "inputs": [],
      "name": "BeginProposalStep",
      "outputs": [],
      "stateMutability": "nonpayable",
      "type": "function"
    },
    {
      "inputs": [
        {
          "internalType": "string",
          "name": "_proposalDescription",
          "type": "string"
        }
      ],
      "name": "RegisterProposal",
      "outputs": [],
      "stateMutability": "nonpayable",
      "type": "function"
    },
    {
      "inputs": [],
      "name": "EndProposalStep",
      "outputs": [],
      "stateMutability": "nonpayable",
      "type": "function"
    },
    {
      "inputs": [],
      "name": "StartVoting",
      "outputs": [],
      "stateMutability": "nonpayable",
      "type": "function"
    },
    {
      "inputs": [
        {
          "internalType": "uint256",
          "name": "proposalId",
          "type": "uint256"
        }
      ],
      "name": "Vote",
      "outputs": [],
      "stateMutability": "nonpayable",
      "type": "function"
    },
    {
      "inputs": [],
      "name": "EndVoting",
      "outputs": [],
      "stateMutability": "nonpayable",
      "type": "function"
    },
    {
      "inputs": [],
      "name": "TaillingVotes",
      "outputs": [],
      "stateMutability": "nonpayable",
      "type": "function"
    },
    {
      "inputs": [],
      "name": "DestructContract",
      "outputs": [],
      "stateMutability": "nonpayable",
      "type": "function"
    },
    {
      "inputs": [],
      "name": "Reset",
      "outputs": [],
      "stateMutability": "nonpayable",
      "type": "function"
    },
    {
      "inputs": [],
      "name": "GetWhiteList",
      "outputs": [
        {
          "internalType": "address[]",
          "name": "",
          "type": "address[]"
        }
      ],
      "stateMutability": "view",
      "type": "function",
      "constant": true
    },
    {
      "inputs": [],
      "name": "GetPropositions",
      "outputs": [
        {
          "components": [
            {
              "internalType": "string",
              "name": "description",
              "type": "string"
            },
            {
              "internalType": "uint256",
              "name": "voteCount",
              "type": "uint256"
            }
          ],
          "internalType": "struct Voting.Proposal[]",
          "name": "",
          "type": "tuple[]"
        }
      ],
      "stateMutability": "view",
      "type": "function",
      "constant": true
    },
    {
      "inputs": [],
      "name": "GetStatus",
      "outputs": [
        {
          "internalType": "enum Voting.WorkflowStatus",
          "name": "",
          "type": "uint8"
        }
      ],
      "stateMutability": "view",
      "type": "function",
      "constant": true
    },
    {
      "inputs": [
        {
          "internalType": "address",
          "name": "voter",
          "type": "address"
        }
      ],
      "name": "HasVoted",
      "outputs": [
        {
          "internalType": "bool",
          "name": "",
          "type": "bool"
        }
      ],
      "stateMutability": "view",
      "type": "function",
      "constant": true
    },
    {
      "inputs": [],
      "name": "GetVoteNumber",
      "outputs": [
        {
          "internalType": "uint256",
          "name": "",
          "type": "uint256"
        }
      ],
      "stateMutability": "view",
      "type": "function",
      "constant": true
    },
    {
      "inputs": [],
      "name": "WinningProposalDescription",
      "outputs": [
        {
          "internalType": "string",
          "name": "",
          "type": "string"
        }
      ],
      "stateMutability": "view",
      "type": "function",
      "constant": true
    },
    {
      "inputs": [],
      "name": "WinningProposalScore",
      "outputs": [
        {
          "internalType": "uint256",
          "name": "",
          "type": "uint256"
        }
      ],
      "stateMutability": "view",
      "type": "function",
      "constant": true
    },
    {
      "inputs": [],
      "name": "winningProposalid",
      "outputs": [
        {
          "internalType": "uint256",
          "name": "",
          "type": "uint256"
        }
      ],
      "stateMutability": "view",
      "type": "function",
      "constant": true
    },
    {
      "inputs": [],
      "name": "ProposalNumber",
      "outputs": [
        {
          "internalType": "uint256",
          "name": "",
          "type": "uint256"
        }
      ],
      "stateMutability": "view",
      "type": "function",
      "constant": true
    },
    {
      "inputs": [
        {
          "internalType": "uint256",
          "name": "Id",
          "type": "uint256"
        }
      ],
      "name": "ProposalDescriptionById",
      "outputs": [
        {
          "internalType": "string",
          "name": "",
          "type": "string"
        }
      ],
      "stateMutability": "view",
      "type": "function",
      "constant": true
    },
    {
      "inputs": [
        {
          "internalType": "uint256",
          "name": "Id",
          "type": "uint256"
        }
      ],
      "name": "ProposalSocreById",
      "outputs": [
        {
          "internalType": "uint256",
          "name": "",
          "type": "uint256"
        }
      ],
      "stateMutability": "view",
      "type": "function",
      "constant": true
    }
  ],
  "bytecode": "0x60806040526000600560006101000a81548160ff021916908360058111156200002457fe5b02179055503480156200003657600080fd5b50600062000049620000ed60201b60201c565b9050806000806101000a81548173ffffffffffffffffffffffffffffffffffffffff021916908373ffffffffffffffffffffffffffffffffffffffff1602179055508073ffffffffffffffffffffffffffffffffffffffff16600073ffffffffffffffffffffffffffffffffffffffff167f8be0079c531659141344cd1fd0a4f28419497f9722a3daafe3b4186f6b6457e060405160405180910390a350620000f5565b600033905090565b61345080620001056000396000f3fe608060405234801561001057600080fd5b50600436106101775760003560e01c80639c493883116100de578063cc4d2ffc11610097578063dcd6a5cd11610071578063dcd6a5cd146103a4578063f27464ed146103c0578063f2fde38b146103f0578063f3fe19761461040c57610178565b8063cc4d2ffc1461035e578063d094c1f01461037c578063d63ad6a31461038657610178565b80639c493883146102ac578063abd95b95146102ca578063ac89cdd7146102e8578063b1a9d2f814610306578063c64963c514610322578063c8ff75021461034057610178565b80636423db34116101305780636423db34146102365780636bcf501b14610240578063715018a61461024a5780637a99c0a6146102545780637d037c6a1461025e5780638da5cb5b1461028e57610178565b806315fe6f1b146101c05780632612efce146101dc578063289f9019146101fa57806329c229e01461020457806330805551146102225780634b5209fd1461022c57610178565b5b600080369050146101be576040517f08c379a00000000000000000000000000000000000000000000000000000000081526004016101b590613156565b60405180910390fd5b005b6101da60048036038101906101d59190612450565b61043c565b005b6101e4610785565b6040516101f19190612e91565b60405180910390f35b610202610813565b005b61020c6108c2565b6040516102199190612eb3565b60405180910390f35b61022a6109cd565b005b610234610b58565b005b61023e610ce3565b005b610248610e91565b005b61025261109d565b005b61025c6111f2565b005b610278600480360381019061027391906124ba565b61137d565b6040516102859190612f34565b60405180910390f35b610296611484565b6040516102a39190612e4d565b60405180910390f35b6102b46114ad565b6040516102c191906131b6565b60405180910390f35b6102d261153c565b6040516102df9190612ef0565b60405180910390f35b6102f0611553565b6040516102fd91906131b6565b60405180910390f35b610320600480360381019061031b9190612479565b6115c4565b005b61032a6117bc565b60405161033791906131b6565b60405180910390f35b6103486117c2565b60405161035591906131b6565b60405180910390f35b6103666117cf565b6040516103739190612f34565b60405180910390f35b6103846118f6565b005b61038e611a81565b60405161039b91906131b6565b60405180910390f35b6103be60048036038101906103b991906124ba565b611b59565b005b6103da60048036038101906103d59190612450565b611e59565b6040516103e79190612ed5565b60405180910390f35b61040a60048036038101906104059190612450565b611f41565b005b610426600480360381019061042191906124ba565b612105565b60405161043391906131b6565b60405180910390f35b610444612174565b73ffffffffffffffffffffffffffffffffffffffff166000809054906101000a900473ffffffffffffffffffffffffffffffffffffffff1673ffffffffffffffffffffffffffffffffffffffff16146104d2576040517f08c379a00000000000000000000000000000000000000000000000000000000081526004016104c9906130d6565b60405180910390fd5b600073ffffffffffffffffffffffffffffffffffffffff168173ffffffffffffffffffffffffffffffffffffffff161415610542576040517f08c379a0000000000000000000000000000000000000000000000000000000008152600401610539906130f6565b60405180910390fd5b6000600581111561054f57fe5b600560009054906101000a900460ff16600581111561056a57fe5b146105aa576040517f08c379a00000000000000000000000000000000000000000000000000000000081526004016105a190613036565b60405180910390fd5b600260008273ffffffffffffffffffffffffffffffffffffffff1673ffffffffffffffffffffffffffffffffffffffff16815260200190815260200160002060000160009054906101000a900460ff161561063a576040517f08c379a000000000000000000000000000000000000000000000000000000000815260040161063190613196565b60405180910390fd5b60405180606001604052806001151581526020016000151581526020016000815250600260008373ffffffffffffffffffffffffffffffffffffffff1673ffffffffffffffffffffffffffffffffffffffff16815260200190815260200160002060008201518160000160006101000a81548160ff02191690831515021790555060208201518160000160016101000a81548160ff021916908315150217905550604082015181600101559050506003819080600181540180825580915050600190039060005260206000200160009091909190916101000a81548173ffffffffffffffffffffffffffffffffffffffff021916908373ffffffffffffffffffffffffffffffffffffffff1602179055507fb6be2187d059cc2a55fe29e0e503b566e1e0f8c8780096e185429350acffd3dd8160405161077a9190612e4d565b60405180910390a150565b6060600380548060200260200160405190810160405280929190818152602001828054801561080957602002820191906000526020600020905b8160009054906101000a900473ffffffffffffffffffffffffffffffffffffffff1673ffffffffffffffffffffffffffffffffffffffff16815260200190600101908083116107bf575b5050505050905090565b61081b612174565b73ffffffffffffffffffffffffffffffffffffffff166000809054906101000a900473ffffffffffffffffffffffffffffffffffffffff1673ffffffffffffffffffffffffffffffffffffffff16146108a9576040517f08c379a00000000000000000000000000000000000000000000000000000000081526004016108a0906130d6565b60405180910390fd5b3373ffffffffffffffffffffffffffffffffffffffff16ff5b60606004805480602002602001604051908101604052809291908181526020016000905b828210156109c45783829060005260206000209060020201604051806040016040529081600082018054600181600116156101000203166002900480601f0160208091040260200160405190810160405280929190818152602001828054600181600116156101000203166002900480156109a25780601f10610977576101008083540402835291602001916109a2565b820191906000526020600020905b81548152906001019060200180831161098557829003601f168201915b50505050508152602001600182015481525050815260200190600101906108e6565b50505050905090565b6109d5612174565b73ffffffffffffffffffffffffffffffffffffffff166000809054906101000a900473ffffffffffffffffffffffffffffffffffffffff1673ffffffffffffffffffffffffffffffffffffffff1614610a63576040517f08c379a0000000000000000000000000000000000000000000000000000000008152600401610a5a906130d6565b60405180910390fd5b60036005811115610a7057fe5b600560009054906101000a900460ff166005811115610a8b57fe5b14610acb576040517f08c379a0000000000000000000000000000000000000000000000000000000008152600401610ac290613016565b60405180910390fd5b6004600560006101000a81548160ff02191690836005811115610aea57fe5b02179055507fc379d349a6301baf50fb2f98d829f4ae10b1cdb7c66f4e4d8117302df7b8cd4c60405160405180910390a17f0a97a4ee45751e2abf3e4fc8946939630b11b371ea8ae39ccdc3056e98f5cc3f60036004604051610b4e929190612f0b565b60405180910390a1565b610b60612174565b73ffffffffffffffffffffffffffffffffffffffff166000809054906101000a900473ffffffffffffffffffffffffffffffffffffffff1673ffffffffffffffffffffffffffffffffffffffff1614610bee576040517f08c379a0000000000000000000000000000000000000000000000000000000008152600401610be5906130d6565b60405180910390fd5b60006005811115610bfb57fe5b600560009054906101000a900460ff166005811115610c1657fe5b14610c56576040517f08c379a0000000000000000000000000000000000000000000000000000000008152600401610c4d90613056565b60405180910390fd5b6001600560006101000a81548160ff02191690836005811115610c7557fe5b02179055507f344c25562921d075a298d34b6dd1fd00d36ff293974539dfd4a8c625d9f0064c60405160405180910390a17f0a97a4ee45751e2abf3e4fc8946939630b11b371ea8ae39ccdc3056e98f5cc3f60006001604051610cd9929190612f0b565b60405180910390a1565b610ceb612174565b73ffffffffffffffffffffffffffffffffffffffff166000809054906101000a900473ffffffffffffffffffffffffffffffffffffffff1673ffffffffffffffffffffffffffffffffffffffff1614610d79576040517f08c379a0000000000000000000000000000000000000000000000000000000008152600401610d70906130d6565b60405180910390fd5b60016000905560046000610d8d919061224f565b6000600560006101000a81548160ff02191690836005811115610dac57fe5b02179055506000806003805490509050600091505b80821015610e7f576002600060038481548110610dda57fe5b9060005260206000200160009054906101000a900473ffffffffffffffffffffffffffffffffffffffff1673ffffffffffffffffffffffffffffffffffffffff1673ffffffffffffffffffffffffffffffffffffffff168152602001908152602001600020600080820160006101000a81549060ff02191690556000820160016101000a81549060ff0219169055600182016000905550508180600101925050610dc1565b60036000610e8d9190612273565b5050565b610e99612174565b73ffffffffffffffffffffffffffffffffffffffff166000809054906101000a900473ffffffffffffffffffffffffffffffffffffffff1673ffffffffffffffffffffffffffffffffffffffff1614610f27576040517f08c379a0000000000000000000000000000000000000000000000000000000008152600401610f1e906130d6565b60405180910390fd5b60046005811115610f3457fe5b600560009054906101000a900460ff166005811115610f4f57fe5b14610f8f576040517f08c379a0000000000000000000000000000000000000000000000000000000008152600401610f8690612fd6565b60405180910390fd5b600080600090506000806004805490509050600091505b80821015611006578260048381548110610fbc57fe5b9060005260206000209060020201600101541115610ff95760048281548110610fe157fe5b90600052602060002090600202016001015492508193505b8180600101925050610fa6565b8360018190555060058060006101000a81548160ff0219169083600581111561102b57fe5b02179055507f0e5e95ff8725ab3e7a4b6b59998a4c344c2aa8d1485f5e60cb7f337768e6134760405160405180910390a17f0a97a4ee45751e2abf3e4fc8946939630b11b371ea8ae39ccdc3056e98f5cc3f6004600560405161108f929190612f0b565b60405180910390a150505050565b6110a5612174565b73ffffffffffffffffffffffffffffffffffffffff166000809054906101000a900473ffffffffffffffffffffffffffffffffffffffff1673ffffffffffffffffffffffffffffffffffffffff1614611133576040517f08c379a000000000000000000000000000000000000000000000000000000000815260040161112a906130d6565b60405180910390fd5b600073ffffffffffffffffffffffffffffffffffffffff166000809054906101000a900473ffffffffffffffffffffffffffffffffffffffff1673ffffffffffffffffffffffffffffffffffffffff167f8be0079c531659141344cd1fd0a4f28419497f9722a3daafe3b4186f6b6457e060405160405180910390a360008060006101000a81548173ffffffffffffffffffffffffffffffffffffffff021916908373ffffffffffffffffffffffffffffffffffffffff160217905550565b6111fa612174565b73ffffffffffffffffffffffffffffffffffffffff166000809054906101000a900473ffffffffffffffffffffffffffffffffffffffff1673ffffffffffffffffffffffffffffffffffffffff1614611288576040517f08c379a000000000000000000000000000000000000000000000000000000000815260040161127f906130d6565b60405180910390fd5b6002600581111561129557fe5b600560009054906101000a900460ff1660058111156112b057fe5b146112f0576040517f08c379a00000000000000000000000000000000000000000000000000000000081526004016112e7906130b6565b60405180910390fd5b6003600560006101000a81548160ff0219169083600581111561130f57fe5b02179055507f1b8e19a458c1bcd88553332c518cc5c4e2d5793e712ee766d4f1c14f672ef1f560405160405180910390a17f0a97a4ee45751e2abf3e4fc8946939630b11b371ea8ae39ccdc3056e98f5cc3f60026003604051611373929190612f0b565b60405180910390a1565b606060048054905082106113c6576040517f08c379a00000000000000000000000000000000000000000000000000000000081526004016113bd90613136565b60405180910390fd5b600482815481106113d357fe5b90600052602060002090600202016000018054600181600116156101000203166002900480601f0160208091040260200160405190810160405280929190818152602001828054600181600116156101000203166002900480156114785780601f1061144d57610100808354040283529160200191611478565b820191906000526020600020905b81548152906001019060200180831161145b57829003601f168201915b50505050509050919050565b60008060009054906101000a900473ffffffffffffffffffffffffffffffffffffffff16905090565b60006005808111156114bb57fe5b600560009054906101000a900460ff1660058111156114d657fe5b14611516576040517f08c379a000000000000000000000000000000000000000000000000000000000815260040161150d90613116565b60405180910390fd5b60046001548154811061152557fe5b906000526020600020906002020160010154905090565b6000600560009054906101000a900460ff16905090565b600060058081111561156157fe5b600560009054906101000a900460ff16600581111561157c57fe5b146115bc576040517f08c379a00000000000000000000000000000000000000000000000000000000081526004016115b390613116565b60405180910390fd5b600154905090565b600160058111156115d157fe5b600560009054906101000a900460ff1660058111156115ec57fe5b1461162c576040517f08c379a000000000000000000000000000000000000000000000000000000000815260040161162390612f76565b60405180910390fd5b600260003373ffffffffffffffffffffffffffffffffffffffff1673ffffffffffffffffffffffffffffffffffffffff16815260200190815260200160002060000160009054906101000a900460ff166116bb576040517f08c379a00000000000000000000000000000000000000000000000000000000081526004016116b290613076565b60405180910390fd5b6116c48161217c565b15611704576040517f08c379a00000000000000000000000000000000000000000000000000000000081526004016116fb90612fb6565b60405180910390fd5b61170c612294565b6040518060400160405280838152602001600081525090506004819080600181540180825580915050600190039060005260206000209060020201600090919091909150600082015181600001908051906020019061176c9291906122ae565b506020820151816001015550507f92e393e9b54e2f801d3ea4beb0c5e71a21cc34a5d34b77d0fb8a3aa1650dc18f6001600480549050036040516117b091906131b6565b60405180910390a15050565b60015481565b6000600480549050905090565b60606005808111156117dd57fe5b600560009054906101000a900460ff1660058111156117f857fe5b14611838576040517f08c379a000000000000000000000000000000000000000000000000000000000815260040161182f90613116565b60405180910390fd5b60046001548154811061184757fe5b90600052602060002090600202016000018054600181600116156101000203166002900480601f0160208091040260200160405190810160405280929190818152602001828054600181600116156101000203166002900480156118ec5780601f106118c1576101008083540402835291602001916118ec565b820191906000526020600020905b8154815290600101906020018083116118cf57829003601f168201915b5050505050905090565b6118fe612174565b73ffffffffffffffffffffffffffffffffffffffff166000809054906101000a900473ffffffffffffffffffffffffffffffffffffffff1673ffffffffffffffffffffffffffffffffffffffff161461198c576040517f08c379a0000000000000000000000000000000000000000000000000000000008152600401611983906130d6565b60405180910390fd5b6001600581111561199957fe5b600560009054906101000a900460ff1660058111156119b457fe5b146119f4576040517f08c379a00000000000000000000000000000000000000000000000000000000081526004016119eb90612f56565b60405180910390fd5b6002600560006101000a81548160ff02191690836005811115611a1357fe5b02179055507f240cb87b2e4df4c318e72bd714d45a9cad60249e883ff56b1fffd83a4595a8fa60405160405180910390a17f0a97a4ee45751e2abf3e4fc8946939630b11b371ea8ae39ccdc3056e98f5cc3f60016002604051611a77929190612f0b565b60405180910390a1565b600080600090506000600380549050905060008090505b81811015611b50576002600060038381548110611ab157fe5b9060005260206000200160009054906101000a900473ffffffffffffffffffffffffffffffffffffffff1673ffffffffffffffffffffffffffffffffffffffff1673ffffffffffffffffffffffffffffffffffffffff16815260200190815260200160002060000160019054906101000a900460ff1615611b4357611b406001846121fa90919063ffffffff16565b92505b8080600101915050611a98565b82935050505090565b60036005811115611b6657fe5b600560009054906101000a900460ff166005811115611b8157fe5b14611bc1576040517f08c379a0000000000000000000000000000000000000000000000000000000008152600401611bb890613176565b60405180910390fd5b600260003373ffffffffffffffffffffffffffffffffffffffff1673ffffffffffffffffffffffffffffffffffffffff16815260200190815260200160002060000160009054906101000a900460ff16611c50576040517f08c379a0000000000000000000000000000000000000000000000000000000008152600401611c4790613076565b60405180910390fd5b600260003373ffffffffffffffffffffffffffffffffffffffff1673ffffffffffffffffffffffffffffffffffffffff16815260200190815260200160002060000160019054906101000a900460ff1615611ce0576040517f08c379a0000000000000000000000000000000000000000000000000000000008152600401611cd790613096565b60405180910390fd5b8060048054905011611d27576040517f08c379a0000000000000000000000000000000000000000000000000000000008152600401611d1e90613136565b60405180910390fd5b80600260003373ffffffffffffffffffffffffffffffffffffffff1673ffffffffffffffffffffffffffffffffffffffff168152602001908152602001600020600101819055506001600260003373ffffffffffffffffffffffffffffffffffffffff1673ffffffffffffffffffffffffffffffffffffffff16815260200190815260200160002060000160016101000a81548160ff021916908315150217905550611dfb600160048381548110611ddb57fe5b9060005260206000209060020201600101546121fa90919063ffffffff16565b60048281548110611e0857fe5b9060005260206000209060020201600101819055507f4d99b957a2bc29a30ebd96a7be8e68fe50a3c701db28a91436490b7d53870ca43382604051611e4e929190612e68565b60405180910390a150565b6000600260008373ffffffffffffffffffffffffffffffffffffffff1673ffffffffffffffffffffffffffffffffffffffff16815260200190815260200160002060000160009054906101000a900460ff16611eea576040517f08c379a0000000000000000000000000000000000000000000000000000000008152600401611ee190613076565b60405180910390fd5b600260008373ffffffffffffffffffffffffffffffffffffffff1673ffffffffffffffffffffffffffffffffffffffff16815260200190815260200160002060000160019054906101000a900460ff169050919050565b611f49612174565b73ffffffffffffffffffffffffffffffffffffffff166000809054906101000a900473ffffffffffffffffffffffffffffffffffffffff1673ffffffffffffffffffffffffffffffffffffffff1614611fd7576040517f08c379a0000000000000000000000000000000000000000000000000000000008152600401611fce906130d6565b60405180910390fd5b600073ffffffffffffffffffffffffffffffffffffffff168173ffffffffffffffffffffffffffffffffffffffff161415612047576040517f08c379a000000000000000000000000000000000000000000000000000000000815260040161203e90612f96565b60405180910390fd5b8073ffffffffffffffffffffffffffffffffffffffff166000809054906101000a900473ffffffffffffffffffffffffffffffffffffffff1673ffffffffffffffffffffffffffffffffffffffff167f8be0079c531659141344cd1fd0a4f28419497f9722a3daafe3b4186f6b6457e060405160405180910390a3806000806101000a81548173ffffffffffffffffffffffffffffffffffffffff021916908373ffffffffffffffffffffffffffffffffffffffff16021790555050565b6000600480549050821061214e576040517f08c379a000000000000000000000000000000000000000000000000000000000815260040161214590613136565b60405180910390fd5b6004828154811061215b57fe5b9060005260206000209060020201600101549050919050565b600033905090565b600080600480549050905060008090505b818110156121ee578380519060200120600482815481106121aa57fe5b90600052602060002090600202016000016040516121c89190612e36565b604051809103902014156121e1576001925050506121f5565b808060010191505061218d565b6000925050505b919050565b600080828401905083811015612245576040517f08c379a000000000000000000000000000000000000000000000000000000000815260040161223c90612ff6565b60405180910390fd5b8091505092915050565b5080546000825560020290600052602060002090810190612270919061232e565b50565b50805460008255906000526020600020908101906122919190612365565b50565b604051806040016040528060608152602001600081525090565b828054600181600116156101000203166002900490600052602060002090601f016020900481019282601f106122ef57805160ff191683800117855561231d565b8280016001018555821561231d579182015b8281111561231c578251825591602001919060010190612301565b5b50905061232a9190612365565b5090565b61236291905b8082111561235e576000808201600061234d919061238a565b600182016000905550600201612334565b5090565b90565b61238791905b8082111561238357600081600090555060010161236b565b5090565b90565b50805460018160011615610100020316600290046000825580601f106123b057506123cf565b601f0160209004906000526020600020908101906123ce9190612365565b5b50565b6000813590506123e1816133ec565b92915050565b600082601f8301126123f857600080fd5b813561240b612406826131fe565b6131d1565b9150808252602083016020830185838301111561242757600080fd5b61243283828461338c565b50505092915050565b60008135905061244a81613403565b92915050565b60006020828403121561246257600080fd5b6000612470848285016123d2565b91505092915050565b60006020828403121561248b57600080fd5b600082013567ffffffffffffffff8111156124a557600080fd5b6124b1848285016123e7565b91505092915050565b6000602082840312156124cc57600080fd5b60006124da8482850161243b565b91505092915050565b60006124ef838361251e565b60208301905092915050565b60006125078383612ddb565b905092915050565b61251881613344565b82525050565b612527816132e9565b82525050565b612536816132e9565b82525050565b60006125478261325f565b612551818561329a565b935061255c8361322a565b8060005b8381101561258d57815161257488826124e3565b975061257f83613280565b925050600181019050612560565b5085935050505092915050565b60006125a58261326a565b6125af81856132ab565b9350836020820285016125c18561323a565b8060005b858110156125fd57848403895281516125de85826124fb565b94506125e98361328d565b925060208a019950506001810190506125c5565b50829750879550505050505092915050565b612618816132fb565b82525050565b60008154600181166000811461263b5760018114612660576126a4565b607f600283041661264c81876132bc565b955060ff19831686528086019350506126a4565b6002820461266e81876132bc565b95506126798561324a565b60005b8281101561269b5781548189015260018201915060208101905061267c565b82880195505050505b505092915050565b6126b581613356565b82525050565b60006126c682613275565b6126d081856132c7565b93506126e081856020860161339b565b6126e9816133ce565b840191505092915050565b60006126ff82613275565b61270981856132d8565b935061271981856020860161339b565b612722816133ce565b840191505092915050565b600061273a6035836132d8565b91507f456e642050726f706f73616c20726567697374726174696f6e2073746167652060008301527f627574206e6f6e652068617320737461727465642000000000000000000000006020830152604082019050919050565b60006127a0602e836132d8565b91507f576520617265206e6f74206174207468652050726f706f73616c73207265676960008301527f7374726174696f6e2073746167650000000000000000000000000000000000006020830152604082019050919050565b60006128066026836132d8565b91507f4f776e61626c653a206e6577206f776e657220697320746865207a65726f206160008301527f64647265737300000000000000000000000000000000000000000000000000006020830152604082019050919050565b600061286c6027836132d8565b91507f546869732070726f706f73616c2068617320616c7265616479206265656e207360008301527f75626d69746564000000000000000000000000000000000000000000000000006020830152604082019050919050565b60006128d26045836132d8565b91507f54686520766f746520636f756e74696e672073746167652063616e206265676960008301527f6e206f6e6c792061667465722074686520766f74696e67206f6e65206861732060208301527f656e6465640000000000000000000000000000000000000000000000000000006040830152606082019050919050565b600061295e601b836132d8565b91507f536166654d6174683a206164646974696f6e206f766572666c6f7700000000006000830152602082019050919050565b600061299e6031836132d8565b91507f456e642074686520566f74696e672073657373696f6e2073746167652062757460008301527f206e6f6e652068617320737461727465640000000000000000000000000000006020830152604082019050919050565b6000612a046029836132d8565b91507f576520617265206e6f742061742074686520566f74657220526567697374657260008301527f696e6720737461676500000000000000000000000000000000000000000000006020830152604082019050919050565b6000612a6a603d836132d8565b91507f50726f706f73616c207374616765206d757374206265206c61756e636865642060008301527f66726f6d20566f74657220726567697374726174696f6e2073746167650000006020830152604082019050919050565b6000612ad0602a836132d8565b91507f546869732061636f756e742061646472657373206861736e2774206265656e2060008301527f72656769737465726564000000000000000000000000000000000000000000006020830152604082019050919050565b6000612b36601e836132d8565b91507f54686973206163636f756e742068617320616c726561647920766f74656400006000830152602082019050919050565b6000612b76604d836132d8565b91507f54686520766f74696e672073746167652063616e20626567696e206f6e6c792060008301527f6166746572207468652070726f706f73616c20726567697374726174696f6e2060208301527f6f6e652068617320656e646564000000000000000000000000000000000000006040830152606082019050919050565b6000612c026020836132d8565b91507f4f776e61626c653a2063616c6c6572206973206e6f7420746865206f776e65726000830152602082019050919050565b6000612c42600a836132d8565b91507f41646472657373652030000000000000000000000000000000000000000000006000830152602082019050919050565b6000612c826018836132d8565b91507f566f746520636f756e74696e672069736e277420646f6e6500000000000000006000830152602082019050919050565b6000612cc2601b836132d8565b91507f546869732070726f706f73616c20646f65736e277420657869737400000000006000830152602082019050919050565b6000612d02600f836132d8565b91507f46616c6c4261636b2063616c6c656400000000000000000000000000000000006000830152602082019050919050565b6000612d42601e836132d8565b91507f576520617265206e6f742061742074686520566f74696e6720737461676500006000830152602082019050919050565b6000612d826023836132d8565b91507f566f746572206164647265737320697320616c7265616479207265676973746560008301527f72656400000000000000000000000000000000000000000000000000000000006020830152604082019050919050565b60006040830160008301518482036000860152612df882826126bb565b9150506020830151612e0d6020860182612e18565b508091505092915050565b612e218161333a565b82525050565b612e308161333a565b82525050565b6000612e42828461261e565b915081905092915050565b6000602082019050612e62600083018461252d565b92915050565b6000604082019050612e7d600083018561250f565b612e8a6020830184612e27565b9392505050565b60006020820190508181036000830152612eab818461253c565b905092915050565b60006020820190508181036000830152612ecd818461259a565b905092915050565b6000602082019050612eea600083018461260f565b92915050565b6000602082019050612f0560008301846126ac565b92915050565b6000604082019050612f2060008301856126ac565b612f2d60208301846126ac565b9392505050565b60006020820190508181036000830152612f4e81846126f4565b905092915050565b60006020820190508181036000830152612f6f8161272d565b9050919050565b60006020820190508181036000830152612f8f81612793565b9050919050565b60006020820190508181036000830152612faf816127f9565b9050919050565b60006020820190508181036000830152612fcf8161285f565b9050919050565b60006020820190508181036000830152612fef816128c5565b9050919050565b6000602082019050818103600083015261300f81612951565b9050919050565b6000602082019050818103600083015261302f81612991565b9050919050565b6000602082019050818103600083015261304f816129f7565b9050919050565b6000602082019050818103600083015261306f81612a5d565b9050919050565b6000602082019050818103600083015261308f81612ac3565b9050919050565b600060208201905081810360008301526130af81612b29565b9050919050565b600060208201905081810360008301526130cf81612b69565b9050919050565b600060208201905081810360008301526130ef81612bf5565b9050919050565b6000602082019050818103600083015261310f81612c35565b9050919050565b6000602082019050818103600083015261312f81612c75565b9050919050565b6000602082019050818103600083015261314f81612cb5565b9050919050565b6000602082019050818103600083015261316f81612cf5565b9050919050565b6000602082019050818103600083015261318f81612d35565b9050919050565b600060208201905081810360008301526131af81612d75565b9050919050565b60006020820190506131cb6000830184612e27565b92915050565b6000604051905081810181811067ffffffffffffffff821117156131f457600080fd5b8060405250919050565b600067ffffffffffffffff82111561321557600080fd5b601f19601f8301169050602081019050919050565b6000819050602082019050919050565b6000819050602082019050919050565b60008190508160005260206000209050919050565b600081519050919050565b600081519050919050565b600081519050919050565b6000602082019050919050565b6000602082019050919050565b600082825260208201905092915050565b600082825260208201905092915050565b600081905092915050565b600082825260208201905092915050565b600082825260208201905092915050565b60006132f48261331a565b9050919050565b60008115159050919050565b6000819050613315826133df565b919050565b600073ffffffffffffffffffffffffffffffffffffffff82169050919050565b6000819050919050565b600061334f82613368565b9050919050565b600061336182613307565b9050919050565b60006133738261337a565b9050919050565b60006133858261331a565b9050919050565b82818337600083830152505050565b60005b838110156133b957808201518184015260208101905061339e565b838111156133c8576000848401525b50505050565b6000601f19601f8301169050919050565b600681106133e957fe5b50565b6133f5816132e9565b811461340057600080fd5b50565b61340c8161333a565b811461341757600080fd5b5056fea2646970667358221220a1b99b515c7561a9be1cf8fc2a4ab7660f2620bdd3c7f186cd351f04101b9e1a64736f6c634300060b0033",
  "immutableReferences": {},
  "source": "/*\nVoting system:\nAddress that are registered by the admin (the address who lauched the contract) are allowed to submit proposals (during the proposal session) and to vote for them (during the voting session). Proposal and voting sessions are scheduled by the admin. An address is allowed to vote for only one proposal. \n*/\n\n\npragma solidity 0.6.11;\npragma experimental ABIEncoderV2;\n\nimport \"openzeppelin-solidity/contracts/access/Ownable.sol\";\n//import \"https://github.com/OpenZeppelin/openzeppelin-contracts/contracts/access/Ownable.sol\";\nimport \"openzeppelin-solidity/contracts/math/SafeMath.sol\";\n\ncontract Voting is Ownable{\n    using SafeMath for uint;\n    struct Voter {\n    bool isRegistered;\n    bool hasVoted;\n    uint votedProposalId;\n    }\n    \n    struct Proposal {\n    string description;\n    uint voteCount;\n    }\n    \n\n    enum WorkflowStatus {\n    RegisteringVoters,\n    ProposalsRegistrationStarted,\n    ProposalsRegistrationEnded,\n    VotingSessionStarted,\n    VotingSessionEnded,\n    VotesTallied\n    }\n    \n   \n    \n    /*Evnements*/\n    event VoterRegistered(address voterAddress);\n    event ProposalsRegistrationStarted();\n    event ProposalsRegistrationEnded();\n    event ProposalRegistered(uint proposalId);\n    event VotingSessionStarted();\n    event VotingSessionEnded();\n    event Voted (address voter, uint proposalId);\n    event VotesTallied();\n    event WorkflowStatusChange(WorkflowStatus previousStatus, WorkflowStatus\n    newStatus);\n\n\n    /*Variables d'tat*/\n    uint public winningProposalId;\n    mapping(address=>Voter) Whitelist; //Les lcteurs enregistrs\n    address [] ListAddress;\n    Proposal[] Propositions; //Liste des propositions; numrotes  partir de 1.\n    WorkflowStatus Etat = WorkflowStatus.RegisteringVoters; //Etats actuel du processus de vote\n\n\n\n    /*Enregistre les addresses des lcteurs sur la Whitelist*/\n    function RegisterVoter(address _address) public onlyOwner(){\n        require(_address != address(0), \"Addresse 0\");\n        require(Etat == WorkflowStatus.RegisteringVoters, \"We are not at the Voter Registering stage\");\n        require(!Whitelist[_address].isRegistered, \"Voter address is already registered\");\n\n        Whitelist[_address] = Voter(true, false, 0);\n        ListAddress.push(_address);\n        emit VoterRegistered(_address);\n    }   \n\n   \n    /*Commence la session d'enregistrement de propositions*/\n    function BeginProposalStep() public onlyOwner(){\n        require(Etat == WorkflowStatus.RegisteringVoters, \"Proposal stage must be launched from Voter registration stage\");\n\n        Etat = WorkflowStatus.ProposalsRegistrationStarted;\n        emit ProposalsRegistrationStarted();\n        emit WorkflowStatusChange(WorkflowStatus.RegisteringVoters, WorkflowStatus.ProposalsRegistrationStarted);\n    }\n\n    /*Permet  l'utilisateur appelant de proposer une proposition*/\n    function RegisterProposal(string memory _proposalDescription) public {\n        require(Etat == WorkflowStatus.ProposalsRegistrationStarted, \"We are not at the Proposals registration stage\");\n        require(Whitelist[msg.sender].isRegistered, \"This acount address hasn't been registered\");\n        /*Vrifie que la proposition n'a pas dj t propose*/\n        require(!ContainProposal(_proposalDescription), \"This proposal has already been submited\"); \n\n        Proposal memory Prop = Proposal(_proposalDescription, 0);\n        Propositions.push(Prop);\n        emit ProposalRegistered(Propositions.length-1);\n    }\n\n    \n\n    /*Permet de mettre fin  la session d'enregistrement de proposition*/\n    function EndProposalStep() public onlyOwner(){\n        require(Etat == WorkflowStatus.ProposalsRegistrationStarted, \"End Proposal registration stage but none has started \");\n        Etat = WorkflowStatus.ProposalsRegistrationEnded;\n        emit ProposalsRegistrationEnded();\n        emit WorkflowStatusChange(WorkflowStatus.ProposalsRegistrationStarted, WorkflowStatus.ProposalsRegistrationEnded);\n\n    }\n\n\n    /*Permet de vrifier si une proposition a dj t soumise.*/\n    function ContainProposal(string memory _proposalDescription) private view returns(bool){\n        uint len = Propositions.length;\n        uint i;\n        for(i = 0; i < len; i++){\n            if(keccak256(bytes(Propositions[i].description)) == keccak256(bytes(_proposalDescription))){\n                return true;\n            }\n        }\n        return false;\n    }\n\n    \n    function StartVoting() public onlyOwner(){\n        require(Etat == WorkflowStatus.ProposalsRegistrationEnded, \"The voting stage can begin only after the proposal registration one has ended\");\n\n        Etat = WorkflowStatus.VotingSessionStarted;\n        emit VotingSessionStarted();\n        emit WorkflowStatusChange(WorkflowStatus.ProposalsRegistrationEnded, WorkflowStatus.VotingSessionStarted);\n    }\n\n    function Vote(uint proposalId) public{\n        require(Etat == WorkflowStatus.VotingSessionStarted, \"We are not at the Voting stage\");\n        require(Whitelist[msg.sender].isRegistered, \"This acount address hasn't been registered\");\n        require(!Whitelist[msg.sender].hasVoted, \"This account has already voted\");\n        require((Propositions.length > proposalId) , \"This proposal doesn't exist\");\n        \n\n        Whitelist[msg.sender].votedProposalId = proposalId;\n        Whitelist[msg.sender].hasVoted = true;\n        Propositions[proposalId].voteCount = Propositions[proposalId].voteCount.add(1);\n        emit Voted (msg.sender,  proposalId);\n        \n    } \n\n    function EndVoting() public onlyOwner(){\n        require(Etat == WorkflowStatus.VotingSessionStarted, \"End the Voting session stage but none has started\");\n\n        Etat = WorkflowStatus.VotingSessionEnded;\n        emit VotingSessionEnded();\n        emit WorkflowStatusChange(WorkflowStatus.VotingSessionStarted, WorkflowStatus.VotingSessionEnded);\n    }\n    \n    function TaillingVotes() public onlyOwner() {\n        require(Etat == WorkflowStatus.VotingSessionEnded, \"The vote counting stage can begin only after the voting one has ended\");\n        \n        uint Win; //L'identifiant de la proposition gagnante\n        uint bestScore = 0; // Meilleur score lectoral obtenu\n        uint i;\n        uint len = Propositions.length;\n        for(i = 0; i<len; i++){\n            if(Propositions[i].voteCount > bestScore){\n                bestScore = Propositions[i].voteCount;\n                Win = i;\n            }\n        }\n        \n        winningProposalId = Win;\n        \n        Etat = WorkflowStatus.VotesTallied;\n        emit VotesTallied();\n        emit WorkflowStatusChange(WorkflowStatus.VotingSessionEnded, WorkflowStatus.VotesTallied);\n    } \n\n\n\n    //L'Owner peut supprimer le contract lorsque le vote est termin \n    function DestructContract() public onlyOwner(){\n        selfdestruct(msg.sender);\n    }\n    \n    //L'Owner peut rinitialiser le contract\n    function Reset() public onlyOwner(){\n        delete winningProposalId;\n        delete Propositions;\n        Etat = WorkflowStatus.RegisteringVoters;\n        uint i;\n        uint len= ListAddress.length;\n        for(i=0; i<len; i++){\n            delete Whitelist[ListAddress[i]];\n        }\n        delete ListAddress;\n    }\n   \n\n\n        /*Fonctions de type VIEW*/\n\n        //Rcupre la whitelist\n    function GetWhiteList() public view returns(address[] memory){\n        return ListAddress;\n    }\n\n        //Rcupre la liste des propositions\n    function GetPropositions() public view returns(Proposal[] memory){\n        return Propositions;\n    }\n\n    //event Status(WorkflowStatus status);\n\n    function GetStatus() public view returns(WorkflowStatus){\n        //emit Status(Etat); \n        return Etat;\n    }  \n    \n    function HasVoted(address voter) public view returns(bool){\n        require(Whitelist[voter].isRegistered, \"This acount address hasn't been registered\");\n        return Whitelist[voter].hasVoted;\n    }\n\n    function GetVoteNumber() public view returns(uint){\n        uint voteCount = 0;\n        uint len = ListAddress.length;\n        uint i;\n        for(i=0; i<len; i++){\n            if(Whitelist[ListAddress[i]].hasVoted){\n                voteCount= voteCount.add(1);\n            }\n        }\n        return voteCount;      \n    }\n\n\n    function WinningProposalDescription() public view returns(string memory){\n        require(Etat== WorkflowStatus.VotesTallied, \"Vote counting isn't done\");\n        return Propositions[winningProposalId].description;\n    }\n        \n    \n    function WinningProposalScore() public view returns(uint){\n        require(Etat== WorkflowStatus.VotesTallied, \"Vote counting isn't done\");\n        return Propositions[winningProposalId].voteCount;\n    }\n\n    function winningProposalid() public view returns(uint){\n        require(Etat== WorkflowStatus.VotesTallied, \"Vote counting isn't done\");\n        return winningProposalId;\n    }\n    \n    function ProposalNumber() public view returns(uint){\n        return Propositions.length;\n    }\n    \n    function ProposalDescriptionById(uint Id) public view returns(string memory){\n        require(Id < Propositions.length, \"This proposal doesn't exist\");\n        return Propositions[Id].description;\n    }\n    \n    function ProposalSocreById(uint Id) public view returns(uint){\n         require(Id < Propositions.length, \"This proposal doesn't exist\");\n        return Propositions[Id].voteCount;\n    }\n    \n    fallback() external{\n        require(msg.data.length == 0, \"FallBack called\"); //On prvient l'utilisateur qu'il appelle la fonction fallback, au cas o il a appell une fonction qui n'existe pas dans le contract\n    }\n    \n}",
  "sourcePath": "/home/andrei/Alyra/Alyra_Blockchain_depot/DEFI/Defi2_SystemeVote_Dapp/contracts/Voting.sol",
  "compiler": {
    "name": "solc",
    "version": "0.6.11+commit.5ef660b1.Emscripten.clang"
  },
  "schemaVersion": "3.3.1",
  "updatedAt": "2020-12-01T20:40:20.684Z",
  "networkType": "ethereum",
  "devdoc": {
    "kind": "dev",
    "methods": {
      "owner()": {
        "details": "Returns the address of the current owner."
      },
      "renounceOwnership()": {
        "details": "Leaves the contract without owner. It will not be possible to call `onlyOwner` functions anymore. Can only be called by the current owner. NOTE: Renouncing ownership will leave the contract without an owner, thereby removing any functionality that is only available to the owner."
      },
      "transferOwnership(address)": {
        "details": "Transfers ownership of the contract to a new account (`newOwner`). Can only be called by the current owner."
      }
    },
    "version": 1
  },
  "userdoc": {
    "kind": "user",
    "methods": {},
    "version": 1
  }
}